:020000040800F2
:10C0000000E40020D1CC0508F1150508F515050858
:10C01000F9150508FD1505080116050800000000C2
:10C0200000000000000000000000000009160508E4
:10C0300005160508000000000D1605081116050874
:10C0400015160508191605081D16050821160508F8
:10C0500025160508291605082D16050831160508A8
:10C0600035160508391605083D1605084116050858
:10C0700045160508491605084D1605085116050808
:10C0800055160508591605085D16050861160508B8
:10C0900065160508691605086D1605087116050868
:10C0A00075160508791605087D1605088116050818
:10C0B00085160508F11A0508011D0508151F050854
:10C0C000191F05081D1F0508211F0508251F050844
:10C0D000291F05082D1F0508311F0508351F0508F4
:10C0E000391F05083D1F0508411F0508451F0508A4
:10C0F000491F05084D1F0508511F0508551F050854
:10C10000591F05085D1F0508611F0508651F050803
:10C11000691F05086D1F0508711F0508751F0508B3
:10C12000791F05087D1F0508811F0508851F050863
:10C130002DE9F04F0E4D97B010AC0FCD0FC495E820
:10C14000030084E803004FF000600A4950F006FF46
:10C15000F8F78CF80B20F8F77DF878B9064A034613
:10C1600000921E2140F2FF729820F8F76DF8FEE76A
:10C170004868010800C00008CC680108BA4A0023DA
:10C18000009232214FF6FF722020F8F75DF8B74A8F
:10C1900082210023009260204FF6FF72F8F754F8D6
:10C1A0000720F8F757F8B24B18600820F8F752F854
:10C1B000B04B18600920F8F74DF8AF4B18600A2013
:10C1C000F8F748F8AD4B18600D20F8F743F8042253
:10C1D000AB4950F0B3FFB0FA80F0AA4B4009187099
:10C1E0004BF062FF3FF06CFB45F082FF0223A64A52
:10C1F0000020137043F0FCFC0346002846F05080FA
:10C20000A24A1E21009258204FF4FC62F8F71CF855
:10C210009D4A4FF000011378DFF8C482042B84BFDD
:10C22000022313704FF4FA72994B4FF4FA601A809C
:10C23000984D88F8001044F069FB01204AF000FD99
:10C2400007F09AF94FF4E06050F0E0FD2A46924B77
:10C25000002442F8143F10460126089250F0E0FDF9
:10C260004FF08043472040F2E7318522049418853F
:10C2700099859E811A8046F03FFD07F055FA4FF0F0
:10C280000000CDE906440394A146844C0421A4F89F
:10C29000F40283480223A4F8E06206702646B4F84C
:10C2A000F021DFF840B2A4F808137E49DFF838A285
:10C2B0007D4F0A708BF80030B6F9A031042B1CBFFB
:10C2C0007A4B83F8009047F0A7FF20B1784B18789D
:10C2D000003018BF0120734AB6F9F0311278754961
:10C2E0009342087000F04183062B01F06385052B13
:10C2F00000F33B836B4A1278052A00F20A83B6F9F1
:10C300004022042A08D0674A1370062B04D1642304
:10C31000A6F84C30A6F89C30B6F900310B2B40F350
:10C320005083012385F828304BF088FF624B18704A
:10C330000520F7F78FFF10B9604B1B7B33B9604ABC
:10C3400013889BB213B14FF4167313805C4B19889A
:10C3500089B2002900F045839BF8003083B1B6F91B
:10C36000F03113B947F058FF50B147F055FF10B105
:10C37000544B1B7823B9288B4CF07CFEA6F818028E
:10C380002B7BDB070DD5B6F9F031062B01F0D481FC
:10C39000D6230C220B2100203FF03EFB0223404A13
:10C3A000137050F011F895F825308BB3B6F9F031D1
:10C3B0009AB2012A2CD9052B2AD00220F7F74AFF7E
:10C3C000002842F01180B6F904323F49049A01EB8B
:10C3D000430301321B8B92B2934204921AD2B6F9F4
:10C3E00040323A4A042B117803F02282B6F94C20ED
:10C3F000B6F99C3021B1B6F95412082904F09481A1
:10C4000033490A808B8001204BF052FF3FF08CFDB6
:10C41000002304932F4B1B782BB12F4B1C88A4B205
:10C42000002C00F09B862B78D3B99BF80030BBB171
:10C4300096F85A3396F8BA1223F0020396F8CE22F1
:10C4400086F85A3396F86E3321F0020122F0020288
:10C4500023F0020386F8BA1286F8CE2286F86E33ED
:10C460001E4A039942E000BFD86801080869010824
:10C4700054D60020848D002050D600204CD60020B9
:10C480003069010858D6002064300020386901085E
:10C49000FA680020F46900201E0000018C310020A1
:10C4A000888D0020BA6C0020F86800202A6C0020DB
:10C4B00004840020E1780020E07800209030002003
:10C4C00000690020F278002048680108296C0020EB
:10C4D000203000207C8D00200E690020FE680020A6
:10C4E000196900205E3600203C6A002013889942BA
:10C4F00041D01288C04992B20B880392BF4A0620ED
:10C500001380A1F80090F7F7A5FEBD4B1B882833D8
:10C51000984207D80620F7F79DFEB94B1B88283BA9
:10C52000984214D24BF086F80620F7F793FEB44BEE
:10C53000B6F94C20188096F8381000204BF010F80F
:10C54000B6F99C2096F8881001204BF009F845F0C8
:10C5500015FE2B78012B01F06F84AA4A1278134341
:10C5600009D1A94B1B78002B01F0CF84A74B1B7876
:10C57000012B01F0CA8447F04FFE20B1A44B1B7879
:10C58000032B40F2F185A34995F831200B781C0765
:10C5900003D5012A0B7800F049829E490B780B786D
:10C5A00003F00803134300F048822C78002C40F07D
:10C5B000B48249F0BBF99AF80030092B0DD0964BA4
:10C5C0001B88042B00F23D85934B1B889BB223B143
:10C5D000914B1B88042B41F254809BF80030002BB8
:10C5E00040F0AB832B7823B98C4B1B78002B40F0A9
:10C5F000AE85B6F90432894A0A2B82F8009009DD2B
:10C60000874B1B78032B00F09D85012B02D1032360
:10C61000834A1370B6F95031012B00F0EE8147F0D8
:10C62000FBFD50B17F4B1B783BB97F4B1B88B3F5AB
:10C63000BE7F02D802237D4A137095F82530ABB136
:10C64000B6F9F02112B97A49097879B19AF800104F
:10C65000072900F05D85B6F94012002900F0D78265
:10C66000042900F0CF82012900F0238307F0FEFAAD
:10C670009BF80030012B03D12B7B43F008032B7375
:10C6800095F83430002B40F0C78198F80030002B2B
:10C690003FF412AE674B1C88A4B2002C00F07284E9
:10C6A000654B00241A4605934FF4167316466149EC
:10C6B0000B80B2F91030002B00F05F810134042CA4
:10C6C00002F15002F5D198F80030DBB2012B00F0F6
:10C6D0001F8498F80030062B01F0208198F8003074
:10C6E000022B00F0468598F80030032B00F0688597
:10C6F00098F80030092B00F06F8798F80030052B70
:10C7000001F06B8198F800300A2B01F05F8298F8F5
:10C710000030072B01F0A58498F80030042B01F0BD
:10C72000B48498F80030082B01F0B285434BB6F979
:10C7300000211B7898F80010092906D098F80010FD
:10C740000A2902D03E4981F800900B2A02D0192212
:10C750003C490A80042B01D106F0DCFAB6F910300E
:10C76000002B40F00982B6F96020B6F8B0301343D0
:10C770001BB223B9B6F90011092902F3E780B6F913
:10C780004032042B01F061849AF80030052B00F050
:10C790002A829BF80020022A71D0062B00F0A8857F
:10C7A0002A7B072B42F004022A7300F00986032B30
:10C7B00001F23C8498F80020092A00F0208498F8BF
:10C7C00000200A2A00F01B8498F80020052A00F0B7
:10C7D00016842A7B42F01002032B2A7340F20F8446
:10C7E0002A7B42F002022A73032B00F26584164A68
:10C7F000D35C032B2AE000BF08460020406C0020D9
:10C800004A960020BB6C0020266C0020898D0020F9
:10C8100004460020FC68002004690020C66C00204B
:10C82000FA450020F278002008850020F536002027
:10C830002E6C0020006900208C31002090300020F8
:10C840002F6C002048300020186C002000F00D8470
:10C85000B6F9F031042B00F04484B6F9503133B905
:10C860004AF65523AE4A12889A4201F0FF8401230A
:10C870008BF800309AF80030052B00F09683B6F95B
:10C88000A021082A00F0A2832A7B42F008022A7322
:10C89000052B00F0A3834BF0D1FC95F83630834292
:10C8A0001DD04BF0CBFC80B19AF80030092B09D099
:10C8B00003EB830306EB0313B3F93830022B01D0EB
:10C8C0004BF04EFCFF23974A13704CF081FBB6F9F6
:10C8D0004032042B0CBF002001204BF0E9FC4BF050
:10C8E000ADFCB6F9103085F83600002BC8BF8E4A73
:10C8F00088F80090C8BF82F85030B6F96030002B3D
:10C90000C4BF894A82F851304BF098FC874B1870AD
:10C91000D2E48749874B089C9A7C11F8010B42F0BE
:10C9200002028C429A74188203F15003F4D1AB8B4B
:10C930006A8BA6F89C30A6F84C2001204AF024F916
:10C94000AB7F002B01F00F852A8C6B8C7A490A8013
:10C950008B8095F8242095F82F3085F8252013B189
:10C96000012385F826303BF0C1FDB6F94032042B97
:10C97000B6F9F0317FF4C7ACC7E4B5F90410A142B1
:10C9800008BFAB806D4B194631F9020BA04209D0AC
:10C990000B466B4999423FF491AE194631F9020BAF
:10C9A000A042F5D133F8020C23F8020965489842F9
:10C9B000EED033F8020C23F8020962489842F1D114
:10C9C000E6E7614B614A1B7885F82890A2F8009051
:10C9D000002B3FF4A9AC5C4B83F800904CF016FCA4
:10C9E000A2E40220F7F732FC01211420F7F72EFC15
:10C9F000B6F95031012B7FF412AE0320F7F72AFC71
:10CA0000002800F0A286022296F85231A6F85021A2
:10CA1000134386F8523102E60123A6F850314DF057
:10CA20003DF8A6F8509185F834902EE60B780B78F7
:10CA300085F8319018073FF5B8AD012295F83230EE
:10CA400085F83120022B01F08181013385F83230E5
:10CA50003F4B83F8009047F035FAB6F9A031042B2C
:10CA600001F07F81B6F9B4313A4A3B49128D31F871
:10CA7000133003FB0233C3EB431203EB8203374A49
:10CA8000136006F0E7FA2B78012B06D0344A1278AF
:10CA9000002A41F02482022B09D02B4B1B78002B5B
:10CAA0003FF483AD2F4B1B78012B02F07C800220DA
:10CAB000F7F7D0FB38B9B6F9F031022B01F0BF839C
:10CAC000042B01F0BC83B6F904320A2B01F3FE817A
:10CAD000082B04DD244B1B78012B01F0F781012387
:10CAE000224A02201370F7F7B5FB50B9164B1B789A
:10CAF0003BB11C4B1B7823B91D4B1B78002B43F01B
:10CB0000D4851C4B83F800902C78022C7FF44EAD1A
:10CB1000054B1B78042B02F0398145F065FA48E596
:10CB2000204600208D36002090300020E078002044
:10CB3000046A00208C31002020300020FA69002097
:10CB4000006A0020F8690020266C0020B68D0020C5
:10CB5000F436002000140040287B0108E46800201F
:10CB6000BB6C0020898D0020F73600203B9600200A
:10CB7000948D00203C960020B6F94032042B7FF4BF
:10CB800003AE022296F8F231A6F8F0211343B6F96B
:10CB9000602086F8F23112B90123A6F86030059BB7
:10CBA000A6F8B090A6F800919A7C503342F00202A9
:10CBB00003F83E2CBD4A9342F6D1022396F83A1070
:10CBC00096F88A2019431A4386F8423286F856327C
:10CBD00086F86A329AF8003086F83A10052B86F803
:10CBE0008A207FF4D6ADB24A5279032A01F0188325
:10CBF0009BF80020022A00F0D8812A7B42F0040230
:10CC00002A73E6E5AB4AB2F90020002A4BD1AA48C4
:10CC1000B6F93820B0F900C0A848A94C10F902E0D4
:10CC2000B6F94C0034F812200EEB0C04241A02FB67
:10CC300004F4A44A002CB2F90020B8BF04F2FF3477
:10CC4000A2EB0C0203FB02F3002BB8BF0333A412C8
:10CC500004EBA30303440698421D9A4208DB421FDB
:10CC60009A4205DC984A1078984A1278024312D00A
:10CC7000974A042913800CBF002001204BF018FBB9
:10CC80003FF052F9924BB6F94012B3F900300693D7
:10CC90008D4B83F80090012909D004297FF4E6AC7C
:10CCA000844BB3F90020012A7FF4E0AC042195F80D
:10CCB00025308848B6F98820B0F900C08648874CEE
:10CCC00010F902E0B6F99C0034F812200EEB0C04C7
:10CCD000241A02FB04F4824A002CB2F90020B8BFE7
:10CCE00004F2FF34A2EB0C0203FB02F3002BB8BFEB
:10CCF0000333A41204EBA30303440798421D9A4292
:10CD000009DB421F9A4206DC6F4A10786F4A12789C
:10CD100002433FF4ABAC6E4A042993800CBF002061
:10CD200001204BF0C5FA3FF0FFF8694BB3F904302E
:10CD30000793654B83F8009098E46A4A127822B111
:10CD4000022B02D1674B01321A704CF03FFA2B7B59
:10CD5000D90703D52B78002B41F00183002495F8E7
:10CD60002530A34200F05B810134042CF7D1287BED
:10CD7000820740F1A985430740F19B85040740F1F4
:10CD80009E8510F0100006D1B6F94032042B18BF72
:10CD900001204BF08DFA3FF0C7F8002006F0A8FB09
:10CDA0002B7B98060BD55048B6F9041202780A2955
:10CDB00042F00102027002DC02224C490A7059065C
:10CDC0000BD54949B6F904220B780A2A43F002032D
:10CDD0000B7002DC0223454A1370454A454B11781B
:10CDE0001C78059183F8009082F800903EF0EAFEEE
:10CDF000002800F06E853F4B1B789C4200F0FA84BF
:10CE0000B6F94032042B0CBF002001204BF050FA41
:10CE10009AF80030032B00F2F98203EB830306EB50
:10CE2000031393F84E2042F0020283F84E20324B57
:10CE30001B882A2B40F21A832B78002B40F01C838E
:10CE40009AF80020082A41F05282194A127A022ADE
:10CE500001D1174A1372294B1B78022B02D12B8B5D
:10CE6000274A13709BF8003013B1013B8BF8003058
:10CE70000123244A85F80C9013704BF0DFF99AF8DF
:10CE80000030214A092B107000F0D4841F4B1B780E
:10CE9000002B3FF4A7ABB6F95041002C7FF4A2ABB6
:10CEA00043F0ECFC194B1C70FFF79CBBCC3200200C
:10CEB000186C00206E3600201C8E00206C72002042
:10CEC00078720020188E00207A8D00202E6C0020B1
:10CED000203000201E8E00208C72002098720020CE
:10CEE0001A8E0020888D0020389600203996002068
:10CEF000DF840020DE84002004690020F278002016
:10CF0000DE4D00200F460020E0780020D04D0020AC
:10CF100040F2DC5CB548B64902780B70012AA7F8EC
:10CF200000C040F2BC82B34B80F80090A3F80090A0
:10CF300041F000FEB6F9F03173B195F82630002BC0
:10CF400001F08F86012B0ABF95F82700288B2883D4
:10CF50004CF090F8A6F81802A74BA8491A78A84BED
:10CF60000A701B78002B41F03A82002049F068FEDD
:10CF70004BF0D4FE4CF02CF8A24BB6F900211B78F4
:10CF8000FFF7D8BB012049F05BFE88F800403BF07A
:10CF9000ADFA0323964A137047F03EF900283FF498
:10CFA0007FAB06F05DFBFFF77BBB98F80030092BE9
:10CFB00000F0208298F800300A2B00F01B82B6F9AE
:10CFC000A0219AF80030082A7FF45EAC8E4A1278CD
:10CFD000002A3FF459AC052B7FF45DAC8B4B5B7999
:10CFE000002B7FF458AC98F80030092B04D098F847
:10CFF00000300A2B7FF44FAC4BF0AEFB4BE4834A7E
:10D00000D25C022A3FF6ECAB98F80020092A3FF4E4
:10D010001FAC98F800200A2A7FF4E2AB18E4B6F8B7
:10D02000402210A904EB440301EB430302F5A06284
:10D03000009392B2E3B2D82140F26D103BF004F8B5
:10D0400092E600236A7B6F48194600EB8202106962
:10D0500040F2054200905F203AF0F6FF9AF8003067
:10D06000092B7FF4B1AAFFF7B8BA98F80030092B62
:10D0700004D098F800300A2B7FF4EAABB6F94C20C4
:10D0800096F8381000204AF06BFAB6F99C2096F812
:10D09000881001204AF064FAB6F9F031062B09D065
:10D0A000B6F800310A3B012B04D9594B1B78002BF1
:10D0B00042F0F2869AF80030062B7FF4C9AB534B4E
:10D0C0009B79022B00F02881B6F9F031022B00F099
:10D0D0006281042B7FF4C1AB4C4A9279012A00F0A3
:10D0E0005F8101204AF0C6FD01214A4B1C784A4B62
:10D0F0001970002C7FF4B1ABB6F904320A2B3FF75C
:10D10000ACAB0620F7F7A2F8444B1C80FFF7A5BB99
:10D110003E49C97902297FF49EAA023A92B2022AB4
:10D1200041F2D1800022104602EB820206EB82021D
:10D1300092F84212354C41F00201E07182F842123D
:10D14000FFF789BA344B83F80090FFF763BA3EF0DB
:10D1500083FC01238BF80030FFF74BBA3EF0E4FE6E
:10D160002F4B1C70FFF75FB9012047F00DFFFFF751
:10D170000ABA01239AF800201D49092A0B7040F0D1
:10D180008782B6F90823042A40F082821F49B6F943
:10D19000E022497A002A41F0B586032902F06B8724
:10D1A0001B4B1A70002006F04FFC1E4B044683F800
:10D1B000009041F0B3F998F80030032B7FF498AA5F
:10D1C00040F2DC533B8005E00420F7F743F8830589
:10D1D00001F1CC823B88B3F57A7FF5D87D2049F008
:10D1E00063FF012006F084F923E000BF2E6C0020CD
:10D1F000888D002012690020A66C0020208E00205F
:10D20000AA6C0020903000207D8D0020186C00203A
:10D21000A46C0020F2780020FA4500200885002048
:10D220007C8D0020DF4D00200420F7F713F88005E7
:10D2300016D43B889BB2002B01F0BC843B88B3F52D
:10D240007A7F01F2B78440F26A323B889A42EBD38C
:10D25000002006F04DF90420F6F7FCFF8005E8D524
:10D260009AF800209B4BB6F90001995C02EB82030F
:10D2700001EB81041B0103EB840333449C7C0B28EA
:10D2800044F002049C7410DD934B1878934B1B7888
:10D2900003430AD0032A03F0FD810A2A05D121B9EC
:10D2A0008C4BDB78012B03F0668746F0C7FF002824
:10D2B00042F06483B6F9F031062B02F05F839AF8EE
:10D2C0000030002B42F072830123AB700122062153
:10D2D00096F806328AF8001043F0030386F8063207
:10D2E0007C4B9A717E4BB6F900211B78FFF722BA6E
:10D2F000784A9279002A40F0308298F80020092A72
:10D300003FF4DDAE98F800200A2A7FF476AC714B2A
:10D310009B79022B7FF4D8AE98F80030092B04D00B
:10D3200098F800300A2B7FF4CFAEB6F95031BBB974
:10D33000B6F9F031022B02F03D82042B02F03A8262
:10D34000B6F90432072B0BDC288B4BF093FE01233C
:10D35000A6F81802A6F850314CF0A0FBA6F85091A0
:10D3600046F05AFF68B15F4B1B7853B95E49B6F976
:10D370001822098802F27B129142D8BF02235B4A2D
:10D3800013709AF80020B6F9F031062A7FF462AAE9
:10D39000022B7FF49EAE4F4A9279012A7FF45DAA58
:10D3A00098F80020092A04D098F800200A2A7FF46F
:10D3B00051AA01234E4A13704CF0F0FAFFF748BA15
:10D3C000B6F94012032904DD4249C97901293FF623
:10D3D00001AA98F8001009293FF403AA98F8002040
:10D3E0000A2A3FF4FDA998F80020052A7FF4F1A944
:10D3F000FFF7F6B9374B5B79012B7FF4F1AD0220D3
:10D4000046F090FE9AF80030FFF742BA072B40F042
:10D41000E881304BDB79032B7FF409AD314A127878
:10D420008AB1344A1278D2070DD5334A127852B9EC
:10D43000B6F8F021511F012905D9012A03D9B6F9FF
:10D440000422092A03DD234B83F80790002303EB12
:10D45000830306EB830393F8422242F0020283F82F
:10D460004222264B1B882A2B3FF6E6AC3BF03EF8C7
:10D470002B78002B3FF4E4AC96F8BA1296F8CE2243
:10D4800096F86E3341F0020142F0020243F00203CB
:10D4900086F8BA1286F8CE2286F86E33DBE4184A94
:10D4A000128892B20AB1174A13701923144A1380D2
:10D4B00005E00420F6F7CEFE430400F12A853B8800
:10D4C000B3F57A7FF5D87D2049F0EEFD012006F016
:10D4D0000FF81EE0186C0020266C0020948D0020B0
:10D4E00090300020F278002008850020F5360020DA
:10D4F000F436002074850020E078002004690020C4
:10D50000126900202E6C00200420F6F7A3FE4204CE
:10D5100016D43B889BB2002B00F0F4863B88B3F511
:10D520007A7F00F2EF8640F26A323B889A42EBD370
:10D53000002005F0DDFF0420F6F78CFE4204E8D55C
:10D540009AF80030AF4AD25C03EB830302EB82020D
:10D550001B0103EB820333449A7C42F002029A746B
:10D5600046F06CFE002841F00586B6F9F031062B36
:10D5700001F000869AF80040002C01F01386012C7F
:10D5800002F0FF80B6F91030B6F96020002B42F0AF
:10D59000D084002A02F00B84012302228AF8003092
:10D5A000AA70022496F8621003EB8302214386F8E6
:10D5B000621006EB021292F83A00B17C40F00300D0
:10D5C00082F83A008F4A2143D4548F4BB174B6F994
:10D5D00000211B78FFF7AEB8B6F9F031002B40F010
:10D5E000CB8046F019FE002840F0C6809AF8003043
:10D5F000062B00F0D080B6F90031844A0B2B12784C
:10D6000003DD9AF80030032B25D022B19AF80030C0
:10D61000062B00F0CA807E4B1B78012B01F0818124
:10D62000022B04D19AF80030012B00F2CB800120AC
:10D6300046F010FE002800F05B87B6F91C33002B83
:10D6400041F3C083013BA6F81C336F4BB6F90021B0
:10D650001B78FFF76FB86B4BDB78012B02F08E83E2
:10D660006B4B1B78012BDBD16A4A13780BB1013B62
:10D6700013704BF053FB644BB6F900211B78FFF796
:10D6800059B83AF033FF644BA3F80090FEF7A5BFFA
:10D6900040F2DC533B8005E00420F6F7DBFDC105DA
:10D6A00000F1A4853B88B3F57A7FF5D87D2049F059
:10D6B000FBFC012005F01CFF04E00420F6F7CAFD86
:10D6C000C20516D43B889BB2002B00F0BF863B8876
:10D6D000B3F57A7F00F2BA8640F26A323B889A420A
:10D6E000EBD3002005F004FF0420F6F7B3FDC205DC
:10D6F000E8D5B6F9A031062B42F00080474B40F246
:10D7000005425A210093772000233AF09DFC4FF404
:10D71000617043F0FBF8424B00210220A3F8009017
:10D72000F6F794FD01211420F6F790FD364BB6F97B
:10D7300000211B78FEF7FEBFD723D6224FF4C87115
:10D7400000203EF069F9FEF723BE0220F6F782FDC5
:10D7500000283FF458A9FEF762BF012A7FF44DAAC2
:10D7600098F80020092A3FF434A898F800200A2AE3
:10D770007FF443AAFFF72DB846F04EFD00283FF492
:10D780003AAF284B1B78002B3FF435AF9AF80030A6
:10D79000062B7FF430AF1B4B9B79022B3FF47BA809
:10D7A0001A4B1B78002B3FF436AF164B9B79012B9D
:10D7B0003FF471A8164B1B78012B3FF455AF022B99
:10D7C0007FF435AF184C1948B4F900100E4B814264
:10D7D000B6F900211B78FEF6ADAF01392180FEF7C6
:10D7E000A9BF092B7FF423AB2B78002B7FF444AE29
:10D7F000FFF731BB0E4B059A1B7893427FF400ABC9
:10D80000FFF706BB186C002090300020266C00202B
:10D810002F6C00206A36002004690020746901081A
:10D8200000690020F2780020FC3600201AFCFFFF7F
:10D83000DF840020834B5B7A032B7FF427ABB6F9A0
:10D840000833072B41F09E834E23422149227E4814
:10D85000837095F8333080F8039001704270002B8C
:10D8600041F0A183784840F0AFFEB6F91C33774908
:10D8700003EB430203EB82028A5C2AB9002BC4BF8C
:10D8800003F1FF33A6F81C33704B1B78002B01F01B
:10D89000E0856F4B1B882BB16C4B93F8B630002B97
:10D8A00002F09B820021022208463CF0E9FBFFF7D0
:10D8B000EDBA4BF08DFB287B04073FF562AA4AF0D6
:10D8C0004BFF287BFFF75DBA4BF028FA287BFFF768
:10D8D00052BA3EF08FF900287FF48DAA3EF0A6F9E7
:10D8E00000287FF488AAB6F9F031062B3FF483AA0A
:10D8F000B6F91030022B02F03B80042B02F0388086
:10D90000544B1B78B6F96020022A02D0042A7FF417
:10D9100074AA012250490A70FFF76FBA40F6B83373
:10D920003B8005E00420F6F795FC830400F11F8599
:10D9300040F6C4123B889A42F4D37D2049F0B4FBF0
:10D94000012005F0D5FD04E00420F6F783FC8004F7
:10D9500017D43B889BB2002B00F0BE8740F6C41260
:10D960003B889A42C0F0B88740F646123B889A42FC
:10D97000EAD3002005F0BCFD0420F6F76BFC800420
:10D98000E7D5B6F84022354B023A012A1B7841F21E
:10D99000A2879AF800202B4895F82510805C02EBAE
:10D9A000820200EB8000120102EB80023244907C84
:10D9B00040F00200907409B185F8259002210720FB
:10D9C00096F86A228AF800000A4386F86A221D4AFD
:10D9D000D171B6F90021FEF7ADBE01229AF80030F0
:10D9E0001F49092B0A7040F03D8600231D4A194645
:10D9F0000092E62040F20A523AF026FB9AF80030F4
:10DA000003EB830206EB0212B2F910201946002A3A
:10DA100040F0AD800B4AD35C032B03F00D808B00EC
:10DA20005A1806EB0212B2F93820072A00F2C38016
:10DA3000DFE812F054013A0132011C010C01C3006D
:10DA4000C3005C01186C002060300020044D0020F1
:10DA5000C84D0020DE840020DF84002090300020AC
:10DA6000888D002024670108C54A1278002A42F0F8
:10DA70001D8203EB830306EB031393F8240040F0AD
:10DA8000E7FE9AF80030BF4A0446D25C032A02F04F
:10DA9000308103EB830306EB03139A8C01329A84E3
:10DAA000B94AB6F90432126803EB830302EB83032D
:10DAB000DB89B64A138046F0AFFB9AF8003010B10C
:10DAC000B34A82F8009003EB830206EB0212B2F92C
:10DAD0003820002A5DD1AA490978002941F0FC8349
:10DAE00003EB830306EB031393F8240040F008F9DB
:10DAF0009AF800300246092B044601F0838303EBB9
:10DB0000830306EB0313998C0131998488F8009004
:10DB1000002A41F0A583104640F000FD98F800303F
:10DB2000002BFBD0002049F08BF8962042F0EEFE4F
:10DB300005F0FAFD3AF0DAFC98F80030052B01F018
:10DB4000498698F80030042B43F043859AF800305A
:10DB5000092B00F0CF8003EB830206EB0212B2F92F
:10DB600024100129C6BF02399184A2F82490092B00
:10DB700000F0CF8003EB830106EB0111B1F93820EF
:10DB8000012A00F0D5800024022A3FF46DAF002A5C
:10DB9000A1D0042A01F07383052A04F01380062A19
:10DBA00004F0268022F00401032906D07549CB5CDD
:10DBB000032B04F02081E4B200E0C824204640F0AA
:10DBC000ADFC98F800300A2B7EF4A1ADB6F9F03127
:10DBD000002B40F0F58146F01FFB002840F0F0815B
:10DBE0009AF80030062B00F0FA81B6F90031644A49
:10DBF0000B2B127804DD9AF80030032B00F04E81D5
:10DC000022B19AF80030062B00F0F381614B1B78AB
:10DC1000012B01F0C380022B04D19AF80030012BB4
:10DC200000F2F481012046F015FB002800F0B286D6
:10DC3000B6F91C330D2B01F322820133A6F81C33F5
:10DC4000554BB6F900211B78FEF774BD4D4B5B5C5C
:10DC5000032B04F0F581514B83F80090002005F070
:10DC6000F3FE4F4B044683F80090A7E70B4406EB06
:10DC7000031393F8240041F051FB9AF80030414A15
:10DC80000446D25C032A99D003EB830306EB03130B
:10DC90009A8C01329A8491E70B4406EB031393F8B4
:10DCA000240041F0E1F9E8E70B4406EB031393F895
:10DCB000240040F0C7F99AF80030324A0446D25C9A
:10DCC000032A06D003EB830306EB03139A8C01327D
:10DCD0009A844FF4617042F019FE6FE70B4406EB33
:10DCE000031393F8240041F097F8C6E740F028F9B1
:10DCF000044663E7234A527A032A7FF42CAFB6F92D
:10DD00001C33002B03F3DC81264A13880BB1013B43
:10DD100013801C4B5B7A032B02F05F85092303EB16
:10DD2000830106EB0111B1F93820012A7FF42BAFF2
:10DD300091F824003FF066FF9AF80030044603EBA8
:10DD4000830206EB0212B2F938201DE7164B85F864
:10DD500032901A7046F0B6F8B6F9A031042B7EF472
:10DD600081AEB6F9B421114901EB82035B8831F829
:10DD7000222002FB03330E4A5B101360FEF781BEC4
:10DD8000266C0020186C0020848D00208036002036
:10DD9000758500202F6C002090300020A46C00209E
:10DDA000DF4D0020C84D0020F436002090360020C2
:10DDB000E4680020012048F0E7FEC14B1B78052BEA
:10DDC00005D8B6F84C20B6F89C306A83AB8387221E
:10DDD0006423BC4900200A70BB49328A0B70B6F834
:10DDE00060302A746B74B6F8B020B6F80031AA74AB
:10DDF000EB7405F0A1FA012005F09EFA2B78AB77C1
:10DE0000002B00F088850023022195F82520AF48DB
:10DE100085F82420AE4A0793069385F825100388D9
:10DE2000818812782B8485F82690B6F9F0316984C0
:10DE300085F82F20FEF75BBAA64A1278002A40F038
:10DE40007B85A54B1A6001230024A44A1370E0B21D
:10DE5000013446F08FFA092CF9D10220F6F7FAF9CD
:10DE600038B9B6F9F031022B00F0CA86042B00F065
:10DE7000C786B6F904320A2B00F35A85082B04DD55
:10DE8000974B1B78012B00F053850123954A1370A3
:10DE9000954B83F800902B78FEF75FBB934BDB78B4
:10DEA000012B01F0F586924B1B78012B7FF4B3AE6A
:10DEB000904A1378352B9CBF013313704AF02EFF24
:10DEC0008D4BB6F900211B78FEF734BC8B4B1B78C9
:10DED000002B40F0C3814BF061FDFEF712BE012321
:10DEE000874C0420237046F045FA2B7884F8009084
:10DEF000022B3EF4DCAD012B3EF4CFAD754B1B780D
:10DF0000002B7EF4D4ADFEF7C8BD4BF047FDFEF705
:10DF100032BB96F85231B6F9502143F0020386F82D
:10DF2000523122B9774B1B78002B01F00D80764BD4
:10DF3000A6F8509183F8009046F06EF9002840F062
:10DF400034872B7BB6F9F02143F06003022A2B7350
:10DF500040F0D88301236D4A137046F05DF9002824
:10DF600001F08D866A4B1B78590701F17986694B60
:10DF70001B78002B41F07F86B6F90432574A0A2BF2
:10DF8000DCBF654BA3F80090012313704BF006FD36
:10DF9000B6F90422B6F9F031022A00F35E86002BAE
:10DFA00040F03986554BB6F900211978524B1B7851
:10DFB00000293EF4BFAB022158480170FEF7BABBFE
:10DFC00046F02AF900283FF410AE414B1B78002B95
:10DFD0003FF40BAE9AF80030062B7FF406AE434BAD
:10DFE0009B79022B3EF457AC444B1B78002B3FF43B
:10DFF0000DAE3E4B9B79012B3EF44DAC3C4B1B7858
:10E00000012B3FF455AF022B7FF40CAE40F2E6300B
:10E01000434C394BB4F90010B6F9002181421B780A
:10E020003EF788AB01312180FEF784BB0A2B7EF4DA
:10E03000D0ABB6F94022032A3EF7CBAB98F80020CC
:10E04000092A7FF4CBA9FEF7CBBB0220012196F869
:10E05000F231A6F8F001034386F8F2313182FEF77F
:10E060009ABD9AF800100C2940F21C862B78012BDF
:10E0700000F0E687022B01F0F9810A238AF80030CC
:10E0800098F80030042B7EF44CAB012240F2DC53B4
:10E0900024493B800A7005E00420F6F7DBF84206CD
:10E0A00001F10F803B88B3F57A7FF5D87D2048F0E9
:10E0B000FBFF012005F01CFA40F26A3439E000BF92
:10E0C000BA6C0020E6450020E74500202030002003
:10E0D000F2780020BB6C0020506C0020F436002049
:10E0E000F73600203B9600203C960020186C00205C
:10E0F0002F6C00206A36002090300020266C002013
:10E100003F6C00202E6C0020343D002075850020DF
:10E1100074850020E078002008850020958D00207F
:10E12000FC360020888D00200420F6F793F8430683
:10E1300014D43B889BB2002B01F05A813B88B3F585
:10E140007A7F01F255813B889C42EDD3002005F097
:10E15000CFF90420F6F77EF84306EAD5002046F012
:10E1600079F8002843F092809AF80020AB4B092AF6
:10E1700002F08786052A42F09E865B79012B0BD13F
:10E18000A74B1B78012B07D1A64B1B78032B04F060
:10E190008B81042B04F05C81A04B29785B7903EB25
:10E1A000830306EB830393F8A22142F0020283F873
:10E1B000A221002902F0958646F040F8002843F09D
:10E1C000C583B6F9F031062B03F0C083964B9AF85D
:10E1D00000201B7885F83520042B0CBF0D220E2261
:10E1E0008AF80020B6F90021FEF7A4BA8F4B1978FF
:10E1F000002940F0BF852C78022C00F0E087012C2C
:10E2000001F0AA8224B946F019F8002842F0A4804F
:10E2100004F072FF844BB6F900211B78FEF78ABA2E
:10E2200049F0D4FD2B7B9BF8002043F00803022A21
:10E230002B733EF41FAB9AF80030FEF7AEBA7B4B5F
:10E240001B78002B00F04F81794B1B78002B00F0DE
:10E250004A81B6F904320A2B7EF73AAC754B18782E
:10E2600000287FF438AE46F085F834E640F062FCD2
:10E27000B6F818024AF0B4FE28834AF0A9FE45F029
:10E28000CBFF002800F099854AF048FDFEF7EFBA71
:10E290009AF800100C2940F2A0852878624B0128DA
:10E2A0001B78B6F9002101F06D8002287EF442AAA5
:10E2B000042B02F05E8010290CBF0E2101318AF878
:10E2C0000010FEF737BAB6F90422092A3EF72AAF42
:10E2D000594A127812F001023EF425AF574A1278DB
:10E2E000002A7EF41FAF03221046FEF71DBF0A2A44
:10E2F0007EF4B1AD494A927A022A04BF474A93722A
:10E30000FEF7A9BD3C2048F0CFFE3B889BB2002B16
:10E310007EF4DFA94A4B0996CC241E46002356F80A
:10E32000042FA1B20092184640F20C420B3C39F087
:10E330008BFE272CF2D14FF49670099E42F0E6FA3C
:10E3400088F8009098F80030002BFBD00123184685
:10E350002B7348F019FC3AF0C9F8FEF7BAB904F08B
:10E36000CBFEFEF7FBBC04F0F1FDFEF7EDBA012297
:10E37000B6F840323349023B93420A7040F20085BE
:10E380009AF80010254B95F82520585C01EB810385
:10E3900000EB80041B0103EB840333449C7C44F0BA
:10E3A00002049C74002A00F02E86531C1D4ADBB226
:10E3B000127885F8253022B1B6F95422082A02F0E5
:10E3C0000D80032B84BF012385F82530072900F039
:10E3D0002B86154BB6F900211B78FEF7ABB92B70D5
:10E3E00004F08AFEFEF7C1BDB6F94032042B7EF47C
:10E3F0000FA8154BB3F9002095F83030002A41F0F2
:10E40000E18143F0010385F83030032B7EF402A84C
:10E41000002385F830900493FDF7FCBF186C0020B2
:10E420002B6C0020296C002090300020266C0020EE
:10E43000948D0020898D002074850020E0780020D4
:10E44000E0300020888D00206E3600203C2048F00F
:10E450002BFE3B889BB2002B7EF445A909240421A6
:10E460009AF80020A6F8E032B74802EB820306EBE8
:10E470000313805C85F82C209A7C85F82D0042F0EF
:10E48000020293F826009A7493F83A2040F00200B2
:10E4900042F0020283F83A2083F82600AB4B8AF858
:10E4A00000401A78AA4BA6F808131B78A6F8F422A5
:10E4B000002B41F0D0850123A34A537296F8E21253
:10E4C00096F8F62296F80A3341F0020142F0020271
:10E4D00043F0020386F8E21286F8F62286F80A3341
:10E4E0000324FEF700B901239A4A1370FEF70CBB10
:10E4F00045F0B0FE002840F0CC859AF80030062B9D
:10E5000001F00680B6F9F021062A01F01480012BF3
:10E5100041F2CD85052B00F0D9870B2B01F044800B
:10E520000C2B41F017808C4B1B78002B42F00A809B
:10E530003DF07CFB38B19AF8003023B9824B1A7851
:10E54000012A02F09C813DF03DFB9AF80030002842
:10E5500000F0A684002B40F0A3847B4A1278012AA5
:10E5600002F09A850024A34201F06C820134042C4D
:10E57000F9D1072B02F08283A3F10B02012A42F2A8
:10E580004483062B03F03480052B02F0BB84002B60
:10E5900042F0CF876C4A12783AB9B6F91020002AB7
:10E5A00003F0B385012A02F0BF87B6F9F021042AEF
:10E5B00002F0CD87644A0993D05C9A00810002EB97
:10E5C000030C0A914FEA0C1C01440CEB810CB4447F
:10E5D000BCF910108646002943F3C0824A1E012B65
:10E5E000ACF8102042F2CA87072B43F0B282564B98
:10E5F000D97969B9B6F94022042A03F0A686032A1C
:10E6000004F01D8296F8063243F0020386F80632C3
:10E610009AF800309A00D1180801504906EB000E14
:10E6200001EB000C7146887C143140F0020001F8C7
:10E63000020C8C45F7D14449C85C1344190100EB26
:10E64000800001EB80013144B1F91030022B0993B5
:10E650007EF753A8002005F0DFFA099B181A0882FC
:10E66000FEF74BB840F2DC533B8005E00420F5F7A1
:10E67000F1FDC20400F164833B88B3F57A7FF5D8DD
:10E680007D2048F011FD012004F032FF04E0042059
:10E69000F5F7E0FDC30416D43B889BB2002B00F0D5
:10E6A000A3843B88B3F57A7F00F29E8440F26A32FD
:10E6B0003B889A42EBD3002004F01AFF0420F5F7C0
:10E6C000C9FDC304E8D52A78002A01F00286244B4C
:10E6D000A5F82C901B78032B02F26283022A03F028
:10E6E000C383B6F9F02101331D49DBB2062A0B7052
:10E6F00003F0968204F068FD194BB6F900211B78EF
:10E70000FEF718B8012049F0B5FAB6F9F031052B3B
:10E710003FF423AC022B3FF420AC124A127850078E
:10E7200009D4114A1178B6F90422002941F0B784BE
:10E73000052A00F39282042B7FF40FAC022048F0EC
:10E74000CBFC3DF025F92DE4186C0020A56C0020D1
:10E75000A46C00203C960020326C0020DC310020AC
:10E760009030002074850020F27800209AF8001084
:10E77000814B09295C5C01EB810304EB84024FEAC5
:10E78000031303EB820333449A7C42F002029A742F
:10E7900000F0BC85052900F0A785022940F07386AA
:10E7A000754A937803B99170744B1A780B46D40765
:10E7B00040F1D583724A1078B6F9F021002840F074
:10E7C000CE8392B2501F012840F2C983012A40F241
:10E7D000C683B6F90422092A00F3C18328780028E9
:10E7E00041F0A78001F0FD02082A41F0A280624AB0
:10E7F000D25C012A02F0B0804FEA830C0CEB0300DC
:10E8000002EB8204000100EB84003044847C022A85
:10E8100044F00204847401F205820132D2B25648F7
:10E820000529C2540BD1B6F9A0414079042C02F05D
:10E83000F783022803D103224F484271C25C0CEBDC
:10E84000030002EB8204000100EB8400304490F9E5
:10E850000A00002803DA0022474800F803909400D9
:10E860000CEB030004EB020E000100EB8E003044C1
:10E87000807AC00704D5002214463F4800F8039070
:10E880000CEB0300000104EB020E00EB8E003044A1
:10E89000807A800741F1CC81092901F0CC810529DA
:10E8A00004D000221446344901F803906344224402
:10E8B0001B0103EB820333449A7C42F001029A74F9
:10E8C000002045F0C7FC002840F07B852D4BB6F9B1
:10E8D00000211B78FDF72EBF3C2048F0E5FB3B886C
:10E8E00099B200297DF4FAAE01239AF80000264A75
:10E8F0009842137041F2998609283DF4EFAE2348FF
:10E900000278002A00F06C851E4B0170B6F90021D8
:10E910001B78FDF71ABF04F0EFFB04F055FCFFF77E
:10E9200072BA9AF80030012B7EF681AEFEF79CBEDB
:10E930004BF034F8FFF7ACBA154A042014461370B4
:10E9400045F018FD84F80090FFF77DBA0D2905DC2D
:10E95000A1F10C039BB2012B02D80123A6F840328F
:10E960000223012086F8423286F8563286F86A324F
:10E9700049F09EFCFDF708BF186C0020748500204C
:10E98000E078002090300020888D00202F6C00203F
:10E990003F6C002045F05EFC002840F097869AF816
:10E9A0000030062B01F00880B6F9F021062A00F0AD
:10E9B0001286012B41F22387052B40F01B86AD4BBD
:10E9C0005879012801F0A8873DF030F938B19AF85C
:10E9D000002022B9A74B1B78012B02F033823DF0B7
:10E9E000F1F89AF80010002800F00D87002940F097
:10E9F0000A87A04B1B78012B02F0A18632469E4B62
:10EA000000241E461346A14201F069820134042C01
:10EA100006F15006F7D107291E4602F05A84A1F1EB
:10EA20000B03012B42F2FC86062902F0C9830A2956
:10EA300042F005878F4B9C7A012C43F20A848D4B60
:10EA40008C005A5C631802EB82001B0103EB80030D
:10EA50003344B3F90800B3F9103002388342099205
:10EA600013DA0020CDE90A2305F0D6F8099B04EB60
:10EA7000010C03EB830E4FEA0C1C0B9B0CEB8E0C72
:10EA800003440A9A06EB0C000382002942F09884A2
:10EA90003AB9B6F91030002B03F09682042B02F03D
:10EAA0008A84B6F9F031042B02F09984714B621814
:10EAB0005B5C120198000A90184402EB8002324419
:10EAC000B2F910E0B2F908C01846F445099102F312
:10EAD000AD840A9A0C4424011A4404EB82033344A3
:10EAE0009B7ADC0609D501EB81031B0100EB80005A
:10EAF00003EB80033344A3F81090012902F2A284AF
:10EB00005C4B5B5C23B9B6F9F031062B03F03F8414
:10EB1000062942F04484574B9879012803F04F832B
:10EB2000544B9B796BBBB6F9F031002B42F0F88760
:10EB300095F82F30288B002B02F0EE8785F8270000
:10EB400096F852319AF8001043F00203A6F850915B
:10EB500086F85231052902F0D684092913D1B6F975
:10EB6000E022B6F9083322B95A1F92B2012A43F2C1
:10EB7000F683042B02F0E3873E4B5B7A022B03F013
:10EB8000E0839AF800108C000020631806EB031352
:10EB90009A7C013042F0020204289A7403F11403B3
:10EBA000F6D1FDF7B4BD354B1B78002B3DF4FDAC21
:10EBB000FDF77DBF3C2048F077FA3B889BB2002BE5
:10EBC0007DF496AD01222E492E4809780270002965
:10EBD00001F023819AF800202949092A0B7004D0FA
:10EBE000062250236A73284A1380284B009340F270
:10EBF00005420023D821992039F026FAFDF778BD87
:10EC0000234B1B78012B00F0A085012221492B7892
:10EC10000A70FDF7A2BC042B3FF490AD0B236B737D
:10EC200049F00CFBB6F90422002801F044831A498C
:10EC3000B6F9183201EB4202B2F85420C3F1960340
:10EC400003FB02F3154A82FB0312DB17C3EB22130B
:10EC50000D4A9BB21380B6F9F031042B7FF4A2A9C0
:10EC60006CE50F4B18884AF0BBF995F826302883DD
:10EC7000FEF768B9186C00208C310020948D0020BC
:10EC8000208E0020888D0020046900202C69010856
:10EC9000898D00203C96002048680108B5814E1BF4
:10ECA000A86C0020C44B00205B5C01EB810103EBEE
:10ECB00083020B0103EB820333449A7C42F002028D
:10ECC0009A7445F0C7FA20B1BC4B1B78002B41F079
:10ECD000A285BB4B9AF800201B784BB1B94B1B782F
:10ECE00033B9B6F900110B2902DD032A01F086843D
:10ECF000092A00F009860A2A01F0B8812B78002B36
:10ED000001F0A580002A41F08284134602EB8202C2
:10ED100006EB021292F84E1041F0020182F84E10FA
:10ED2000A54AD25C03EB830302EB82021B0103EBD7
:10ED3000820333449A7C42F003029A74FDF7ECBCE0
:10ED4000A14B1B78002B40F049839AF80020072A3A
:10ED500005D1994AD279022A04BF9C4A137005F062
:10ED60003DF8002800F0FA86994BB6F900211B788F
:10ED7000FDF7E0BC964BB6F900211B78FDF7DABC35
:10ED8000934BB6F900211B78FDF7D4BC012300207A
:10ED90002B7045F0EFFA2C70FDF7BFBE9AF80030EB
:10EDA000012B7EF63FAFFFF783B804F059FCB6F9AC
:10EDB0000422B6F9F031FFF7EFB8022049F078FAF3
:10EDC000FFF762BA834B1B88002B40F04984804BCD
:10EDD000B6F900211B78FDF7ADBC774B00205A5CDB
:10EDE00001EB810302EB82021B0103EB820333443C
:10EDF0009A7C42F002029A7445F02CFA002840F006
:10EE00005A866F4B9AF800201B784BB16D4B1B78DC
:10EE100033B9B6F900110B2902DD032A02F0B584DB
:10EE2000092A01F0CF806A4B29781B78002941F02C
:10EE30008A800A2A01F0C6850C2A02F04F8301322B
:10EE4000D2B2092A8AF8002002F04C83032A02F287
:10EE5000058191008C1806EB041494F84EC04CF018
:10EE6000020C84F84EC0002841F08D800A2A42F03E
:10EE7000E080514A927A022A02D14F4A82F80A90DF
:10EE80004D4A927A02EB820206EB820292F832132A
:10EE900041F0030182F83213B6F90021FDF74ABCB4
:10EEA000052B00F0AB860C2B7FF65CABA3F10D02BB
:10EEB00049484FEA420E0EEB020100EB810191F846
:10EEC0000BC048794CF0020C81F80BC0002800F010
:10EED000848591F804C00138C0B20990ACF10200F9
:10EEE0000A90099848710A98012841F2AA83099961
:10EEF000012900F0858709990B2900F070859A0097
:10EF0000FFF799BBB6F91C330329099301F0D382AB
:10EF100004F048FD314B04461B78002B40F013866B
:10EF200096F8E21296F8F62296F80A3341F00201BA
:10EF300042F0020243F0020386F8E21286F8F6225B
:10EF400086F80A33FDF7CFBB4DF024FA0123A6F86B
:10EF500050311F4BB6F900211B78FDF7EBBB072999
:10EF60007FF43CAC144AD279022A02D1032212481F
:10EF7000C2712A78002A01F075800F4A4FEA830C8B
:10EF8000D25C3BE4164A03EB830302EB43031548D0
:10EF900059789A78DB780170837095F83330427035
:10EFA000002B3EF45FAC0021032208463BF068F8DA
:10EFB00085F83390FEF756BC186C00203E6C00209C
:10EFC000266C0020898D00202F6C0020888D002069
:10EFD00090300020C84D002020310020A46C00207B
:10EFE00004710108603000203C2048F05DF83B8847
:10EFF0009BB2002B00F03D849AF80020092A7DF492
:10F0000081ABFEF7F2BC0224CF4B85F825401B787C
:10F010002BB1B6F95432082B134601F0F2850729BB
:10F02000CDE906337FF4D5A9022808BFC74BB6F94E
:10F03000002108BF83F80790C54B1B78FDF77ABB0A
:10F04000C44AA1F10D0303EB430302EB8303DA7A15
:10F050000D2942F00202DA7200F05F860139C9B26E
:10F06000A1F10D03BB4A03EB430302EB8303DA7AFE
:10F070008AF8001042F00102DA72FDF74DBBB64982
:10F08000B6F900210B8801330B80B14B1B78FDF7DB
:10F0900051BBB2490B78A3F14202182A00F2108446
:10F0A000013BDBB20B70AE4AAE491278002001F88A
:10F0B000123045F0E5F8A64BB6F900211B78FDF7B4
:10F0C00039BB9AF80030032B04D1A04BDB78012B1D
:10F0D00001F0EF82002045F0BDF80446002840F022
:10F0E000FA859AF80020092A01F0B4810B2A01F070
:10F0F0005F86052A01F02C833CF098FD9AF80030D9
:10F10000B6F9002110B1012B42F215800B2A01F053
:10F110007686092B01F09086B6F9F021062A01F0D7
:10F12000688695F82630002B41F0F88501212B7B6D
:10F1300085F8261043F060032B735AB1288B96286C
:10F1400002F2C784884B1880022295F827308BF88A
:10F1500000202B83032044F0E5FF39F0C7F9B6F90E
:10F160002430022B01F33985794BB6F900211B7845
:10F17000FDF7E0BA012045F06DF800283EF4FAA949
:10F180000021032208463AF07BFFB6F9F031062B46
:10F190007EF4F0A90123754A9AF800401370002C00
:10F1A0007EF4EDA9694B1B78022B01F0B981B6F909
:10F1B0000031092B40F3DE822346FEF7F2B9B6F99F
:10F1C000F0310991062B00F09E8545F037F80028B4
:10F1D00041F0118103F0BAFEB6F800310A3B012B71
:10F1E00040F26D86B6F9F031042B00F0688698F88D
:10F1F0000020574B092A1B783DF4A9AAB6F9002133
:10F20000FDF79CBA5149497A03297EF478AC00286D
:10F2100001F0EA86B6F91C330D2B01F3D8820133D5
:10F22000A6F81C33524809923FF0CEF9B6F91C33C8
:10F23000504A03EB430103EB8101505C1144099AEE
:10F2400018B14D4881427EF461AC002B7EF75EAC74
:10F25000013BA6F81C3388F80090002A3EF45BAC12
:10F260002B78002B42F08B829AF8003003EB83025C
:10F2700006EB0212B2F93820042A7EF48DACB6F9FE
:10F280001C33099304F08EFB09213C4B04461A7889
:10F290008AF80010099B002A43F0BB8296F8E2121C
:10F2A00096F8F62296F80A3341F0020142F0020283
:10F2B00043F0020386F8E21286F8F62286F80A3353
:10F2C000002802F0278650229AF8003002FB0362E1
:10F2D000B2F93820FEF760BC294B1A7049F096FF4E
:10F2E0009AF80030FEF7FCBBB6F9A031052B00F010
:10F2F000D983DA1F92B2012A40F2D483062B7FF41D
:10F3000053AA124B83F80590FDF76DBE032C7FF4D2
:10F310004BAA44F093FF002841F0218796F8F6327B
:10F32000B6F9F02143F00203062A86F8F6329AF87D
:10F3300000107FF42FAAB6F9E032012B04BF0B4A6C
:10F340001370FFF727BA00BF296C0020186C00204B
:10F350009030002020310020C84D00205F36002072
:10F360003E6C0020A8350020A86C0020463000200C
:10F3700060300020044D00208C680108A46C00203F
:10F38000266C0020BB4CA1F10D0000EB400004EB0B
:10F390008000C47A152944F00204C47200F0788514
:10F3A0000131CCB2A4F10D01B24801EB410100EBF7
:10F3B0008101C87A8AF8004040F00100C872FDF768
:10F3C000B9B9AD4BAD491B78AD4811F81310AD4B31
:10F3D000B6F900211B780170FDF7ACB983F0030387
:10F3E000A94A1370A74BB6F900211B78FDF7ADB9F8
:10F3F0003C2047F059FE3B889BB2002B7DF491A93D
:10F40000A2490B785C0701F16A8043F00402994B32
:10F410000A70DA7D0C3342F00202DA729C4A9A4298
:10F42000F7D19AF80030092B04D0092250236A73CF
:10F43000984A1380984B40F205420093D82100234C
:10F44000912038F001FE2B7B43F060032B73FDF716
:10F4500068B94E22914B924901E011F8012F03F84F
:10F46000012B904A9A42F8D1FEF713BA854B1B78CC
:10F47000042B00F0DD870E2901F0D98201398AF8CA
:10F480000010FDF749B9032940F0A8818648C378E8
:10F490006BB9B6F900210B2A01F373824FF0020316
:10F4A000C3707FF481A9774B1B78FDF743B9022B1A
:10F4B0007FF47AA9B6F90021092A7FF775A97A4B5A
:10F4C00083F803906F4B1B78FDF734B9764B5B796B
:10F4D000012B7FF42DA8B6F9A031082B7FF428A8C2
:10F4E000724BB6F900211978664B1B78002942F05F
:10F4F000A9846F496F4C08782188002802F00D8795
:10F50000B1F5487F83F0908014312180FDF712B966
:10F51000654B9B79012B7FF40BA8099044F07CFE8E
:10F520000999002841F0E586B6F9F0219AF80030F3
:10F53000062A7EF4ECAF002B40F06A875A4A127814
:10F54000032A01F00E84584AD25C012A01F012828B
:10F550009AF80030584A1278002A3EF4E9AF0A2B94
:10F560007EF4E6AF504B9B7A012B3EF6E1AFB38CB5
:10F57000033B012B3EF6DCAFB6F93023002A43F300
:10F580003883B6F94433002BC4BF03F1FF33A6F828
:10F5900044333C4BC4BF02F1FF32A6F830231B7842
:10F5A000B6F90021FDF7C6B8444B1B78002B40F09C
:10F5B000EB86434B1B78002B3EF4BAAF4148314BEE
:10F5C0000178B6F900211B7800293DF4B3A8013970
:10F5D0000170FDF7AFB8002B41F0E481324A127898
:10F5E000032A02F09980304AD05C012801F0BF84E0
:10F5F0009AF80030304A1278C2B10A2B16D12A4B41
:10F600009B7A012B3FF6E0A9B38C033B012B3FF61D
:10F61000DBA9B6F93023B6F92833934202F34B86BF
:10F62000184BB6F900211B78FDF784B80B2B40F07E
:10F630005681224B1B78002B41F0EC81204B1B782C
:10F64000002B3FF4C1A91F480E4B0178B6F90021E9
:10F6500002291B783DF66EA801310170FDF76AB8EA
:10F66000194A013B1380074BB6F900211B78FDF7BF
:10F6700061B800BF203100203E6C0020A83500207A
:10F680005F360020903000202F6C00207485002011
:10F690008031002004690020A4690108044D002085
:10F6A0008C680108114D0020186C0020396C002076
:10F6B000366C0020603600203A6C0020356C00204B
:10F6C000336C0020346C0020C84D0020CB4A1178E8
:10F6D000A1F14103182B00F224834B1CD9B2117005
:10F6E000C74BC84A1B78002002F8131044F0C8FD2D
:10F6F000C54BB6F900211B78FDF71CB8C34B5A2146
:10F70000009340F2054200230F2038F09DFC4FF497
:10F71000617041F0FBF80421022088F80090F4F7B2
:10F7200095FD98F80030002BFBD00123B84A00204B
:10F73000137088F8009003F0DBFE4FF41673B54A9F
:10F7400013809AF80030FDF7A3B8B34B1B78002B59
:10F750003FF45BAAFEF78DBB9AF80030AA4A102B43
:10F76000127840F26A8310238AF8003002232B704B
:10F77000FEF74EBD204603F0DFFD9AF80030FDF79E
:10F7800010BFA64B5A78022A7FF411ADB6F960304B
:10F790000992002B41F03684042044F0C3FC9A4BBC
:10F7A000099A93F85130AA70A6F860309AF80030A0
:10F7B000FDF7F7BE0220F4F74DFD00287DF4C0AD43
:10F7C000FDF7C2BD012A04BF43F0020385F83030C3
:10F7D000FEF71BBE9AF80030FEF7C9B906297EF481
:10F7E000E3AFB6F9F0218D4B062A9B7900F0A8878C
:10F7F000022B01F0F6828A4B1B78D80700F11084A7
:10F800000623FFF7BABB052900F08A8595F8253055
:10F81000002B00F06581072940F062817F4BDB7986
:10F82000022B7FF4EBA87D4B83F80790FFF7E6B837
:10F830007C4BB3F9003019B1B6F95422082A0BD029
:10F84000002B40F06485B6F89C30774A9380002006
:10F8500048F02EFDFCF7DABDB6F9A021042AEFDC52
:10F86000002B42F0AE82B6F89C306F4A0A33938088
:10F87000EDE76B4A1178C80700F10985B6F8F03159
:10F8800041F00101023B022B117040F29B860720E0
:10F8900050219AF80020614B9B5C02EB820E03EB37
:10F8A000830C73461B0103EB8C03334493F812C0A3
:10F8B00068734CF0020098745C4B1980FFF79EBB94
:10F8C000A3F13002082A00F2318401334B4ADBB243
:10F8D0001370FFF7E8BBB6F90021FCF72BBF0C2B28
:10F8E0007FF472A8524B1B78002B3FF46DA851484F
:10F8F000454B0178B6F900211B7800293CF41AAF7A
:10F9000001390170FCF716BF444B5B7A032B00F002
:10F9100094872B78012B00F0AD87022B04D13A4B52
:10F920001B78042B00F0A6870A238AF80030FFF723
:10F93000F7B90C2940F27A830D3B3F485900CA18A9
:10F9400000EB8202507901287EF6BAAFD47A0728FC
:10F9500044F00204D47200F22583042800F02283CC
:10F960001379002B41F0E78601231371FEF7A8BF3E
:10F970000122324913460A70FDF7C4BF012044F04A
:10F9800069FC00283DF49BAC0021032208463AF0B4
:10F9900077FBB6F9F031062B7DF491AC01231C4ABC
:10F9A00013709AF80030002B3DF48EAC012B04BF8D
:10F9B0000223AB70FDF78ABC184B9C79012C7FF4B5
:10F9C00003A844F029FC20B11D4B1B78002B42F00A
:10F9D0007B859AF80030FEF7E7BF0B20487195F859
:10F9E0002C107244994201F09D830749124809780E
:10F9F00000EB82021171FFF782BA00BF5F36002070
:10FA00003E6C0020A835002090300020A46801083A
:10FA10004630002000690020948D0020186C0020E2
:10FA2000748500206E3600202030002004690020FC
:10FA3000326C00201A69002020310020DE84002072
:10FA4000316C0020BC4A12F803C0BCF1000F7EF4F8
:10FA50008DAD03EB8302B9491201885E01287EF463
:10FA600085ADB6F940E2B5F906109E45B5F904201A
:10FA700002F01686A24208BFA5F80490A142B04A3F
:10FA800007D0B04991423EF471AD32F9021BA14258
:10FA9000F7D1911E31F8020C21F80209AA488842D8
:10FAA000F8D1EEE7A44A5379002B7FF42AAC012366
:10FAB0005371FCF7F0BEA54A1378062B02D8013328
:10FAC000DBB21370A24A012012F81330A14A13705E
:10FAD00044F0D6FBA04BB6F900211B78FCF72ABEF8
:10FAE0000C297EF68BAFA1F10D049C4A600003192E
:10FAF00002EB830393F80BC05A794CF0020C0A2AEC
:10FB000083F80BC000F2E3810132D2B2022A5A71AB
:10FB100041F0218295F82C308B4216BF8E4B95F820
:10FB20002D201A7803198D4800EB8303901E0128BD
:10FB30001A7101D804225A7198F80030072B7CF40E
:10FB4000EBADFEF793BA03239DF82420A6F81C23FF
:10FB5000794A537203F0CAFFFFF7E2B9804BB3F959
:10FB6000102050330AB10130C0B27E4A9342F6D120
:10FB7000B8B1B6F900310B2B01F075840D2B41F3B0
:10FB80006D84B6F910203AB9A3F10C0292B2012AA1
:10FB900004D8B6F960200AB10138C0B2022801F2D7
:10FBA0006A8496F80632B6F9F02143F00203062A79
:10FBB00086F80632B6F940020ED001280CD1B6F90B
:10FBC00010304BB1B6F9603033B1B6F8B010B6F8BA
:10FBD00000310B4301F0E6850024614BB3F910209E
:10FBE000503312B1A04241F0EA850134042CF5D122
:10FBF000594BB6F900211B78FCF79CBD4E4A52794F
:10FC0000002A40F0CE83B6F9A021002A7EF4AAACE7
:10FC10004FF40061544A554822F8021F9042FAD12D
:10FC2000FEF7A0BC444A02F803900022FEF707BE8C
:10FC300009297EF43BAE4049497A03297EF436AE69
:10FC4000B6F9081307297EF431AEB6F9E01200299F
:10FC50007EF42CAE384A5172D25C9400FEF726BE78
:10FC6000032047F0E7FF032047F0BAFF404B1B7823
:10FC7000002B3EF481A948F073FAFEF77DB901210B
:10FC80000620F4F7E3FA022047F026FAFEF76AB9F5
:10FC9000002A41F05180374B1B78002B3EF403A91A
:10FCA000B6F93033FE2B3EF7FEA801339BB21AB2F1
:10FCB000FC2AA6F830233EF7F6A82F4A12782AB17C
:10FCC00095F82620002A14BF012202221344A6F828
:10FCD0003033FEF7E8B820231E491C4A0B70127817
:10FCE0001B4901F812301C4BB6F900211B78FCF7B8
:10FCF00021BDB6F91C330D2B00F35C870133A6F848
:10FD00001C33FDF7CDBE01232B7003F0F5F9124B28
:10FD1000B6F900211B78FCF70DBD08231521FFF76C
:10FD2000A1B9A1F13103082B00F28C864B1ED9B288
:10FD3000084B1970D4E400BF186C00209C310020DF
:10FD4000FC690020006A0020F86900203E6C002059
:10FD5000A83500205F3600209030002020310020A0
:10FD60008C310020CC320020C66C0020667200204E
:10FD7000E0780020948D0020E0680020002A00F048
:10FD80006984D14B1B88052B01F0F081322B01F0E7
:10FD9000B687B3F5FA7F01F0BA86012B02D9CA4AB9
:10FDA0005B0813800123C94A1370FCF774BDB6F9D0
:10FDB0000031092B00F3EC85AB78012B41F2A384D1
:10FDC000022B7FF4F9A9012318468AF8003003F0CA
:10FDD000B3FA9AF80030FDF7E4BB4E22BC4BBD49A4
:10FDE00001E011F8012F03F8012FBB4A9A42F8D124
:10FDF000FDF758BD099803287FF479A801204871C0
:10FE00000421B648724400EB8202117185F82C304F
:10FE100085F82DC09A00FEF70EBCB14B1A704CF05D
:10FE2000B9FA9AF80030092B04D0052250236A73DE
:10FE3000AC4A1380AC4BFEF7D9BE042A01F09D807A
:10FE40000D2B40F08C830E238AF800308EE4002ABC
:10FE50003EF45BAF013AD2B2082A8AF8002040F0A3
:10FE6000AF86A24B1B7A022B02D1A04B83F80890DD
:10FE70009E4B9B5C02EB820203EB8301130103EBBD
:10FE8000810333449A7C42F003029A74FCF744BC29
:10FE900000210D24FFF788BA6E22012394490A80BD
:10FEA000944A13703BF0DEFEFDF704B9924B83F8E1
:10FEB000009049F0ABF99AF80030FDF7DABD3BF05D
:10FEC000CBFD8E4BB6F900211B78FCF733BC042028
:10FED0001A7985F82C10988085F82D202CE6834A15
:10FEE000125D002A7EF492ADB3F94022A24202F0E4
:10FEF0005E81B5F904209442814A08BFA5F80490B8
:10FF0000104630F902CB644509D002467D48904244
:10FF10003EF47CAD104630F902CB6445F5D19E46E7
:10FF200032F802CC784B22F802C99342F8D17346DA
:10FF3000EBE7002A7FF43BAF01218AF8002013464B
:10FF4000A970FDF72EBB0C2A00F03C85022940F079
:10FF50003E87042B00F03B87092A00F233850132EB
:10FF6000D2B2092A8AF8002001F03D83032A01F267
:10FF700060809100881806EB001090F84E4044F025
:10FF8000020480F84E405948805C0A44120100EB9C
:10FF9000800002EB80023244917C41F003019174B5
:10FFA000FEF77ABF4D4AC81802EB80000279032A97
:10FFB00040F22885494A0B4402EB830383F80490FE
:10FFC000FEF77EBC494B597A032901F06D8301EBA2
:10FFD000810206EB820292F8E202484B40F00300F5
:10FFE0001B7882F8E202032900F0FE84B6F90823A8
:10FFF000042A06D1B6F9F422092AC4BF0922A6F8B8
:020000040801F1
:10000000F422424A92F8E212143241F0020182F8DC
:10001000CE123F499142F5D1B6F90021FCF78ABBD7
:100020003C4B1B78002B00F0E38506235024142062
:1000300004FB03F42D4AD25C00FB02403044847C74
:10004000022A44F00204847442F2C78500224FEA77
:10005000830CFEF7E4BB0323244A537203F046FDEE
:10006000FEF72CBA214AD25CFEF7C6BB08238AF8F9
:100070000030FEF755BE284A137041F01DFA274B99
:10008000274A13F8011F02F8011F26499942F8D1A7
:1000900003F02CFD0123244A1370FDF783B8022AD4
:1000A0007EF749AB042B7DF47DAFFEF747BB0F4ACB
:1000B000D25C032A7FF449AA2A7B013342EA431324
:1000C0002B73FFF745BA00BFB68D0020958D002039
:1000D000B94D00208C680108C64D00202031002059
:1000E000208E00200469002088690108186C002017
:1000F0000E6900207C8D0020266C002090300020AE
:10010000FA690020006A0020F86900208C31002084
:10011000DC310020E0780020DF4D0020B3460020D5
:1001200053300020BB460020A46C0020A3F1200225
:100130003F2A3EF6B8AF01A151F822F03D02010876
:10014000A7F00008A7F00008A7F00008A7F0000833
:10015000A7F0000883020108A7F00008790201084F
:100160006F020108A7F00008A7F00008A7F0000838
:1001700065020108A7F00008A7F00008A7F0000832
:10018000A7F00008A7F00008A7F00008A7F00008F3
:10019000A7F00008A7F00008A7F00008A7F00008E3
:1001A0005B020108A7F00008A7F00008A7F000080C
:1001B000A7F00008A7F000083D020108A7F000081A
:1001C00047020108A7F00008A7F00008A7F0000800
:1001D000A7F00008A7F00008A7F00008A7F00008A3
:1001E000A7F00008A7F00008A7F00008A7F0000893
:1001F000A7F00008A7F00008A7F00008A7F0000883
:10020000A7F00008A7F00008A7F00008A7F0000872
:10021000A7F00008A7F00008A7F00008A7F0000862
:10022000A7F00008A7F00008A7F00008A7F0000852
:10023000A7F00008A7F00008510201083023CC4ABB
:100240001370FEF730BF2023C94A1370FEF72BBF8F
:100250002D23C74A1370FEF726BF5F23C44A1370CD
:10026000FEF721BF2923C24A1370FEF71CBF2823C3
:10027000BF4A1370FEF717BF2623BD4A1370FEF75F
:1002800012BF2522BA4913460A70FEF70CBF9AF82E
:100290000020B84821F00101072A017005D1B649B4
:1002A000C979032904BFB449CB71B34B082050214D
:1002B0009B5CFFF7F2BAB149B6F9F03101EB4202AB
:1002C000B2F85420AE49042B0A807DF46BAEFEF7E1
:1002D00035BAAC489AF800300178002940F04885DA
:1002E0000122092B027003D050236A73A44A1380A1
:1002F000A54B40F205420093D8210023892037F016
:10030000A3FEA24BB6F900211B78FCF713BA012B10
:100310007FF49DAAB6F84C309D4A1380FFF797BA38
:10032000954B5B79012B7EF469AB9A4B1B78012BC3
:100330007EF464ABB6F9A031042B42F34381072B62
:100340007EF45CAB944A92F9003013F1630FA4BFC2
:1003500003F1FF3313703BE0012043F07BFF0028E3
:100360003DF456AF03222146204639F089FEFDF7C1
:100370004FBF0D2900F01C87102901F0A083013127
:100380008AF80010FCF7D6B98448804B0178B6F99A
:10039000002101291B783CF6CDA901310170FCF741
:1003A000C9B9012A7EF4DEA87A4A1278012A7EF4BD
:1003B000D9A8B6F9A021042A42F3A680072A7EF420
:1003C000D1A8754A92F90030632B01DC0133137018
:1003D00042F078FB9AF80030FCF75ABA022B7DF411
:1003E000F0AFB6F9A031042B3DF7F0AF032385F849
:1003F0002530FDF7EBBF012043F02CFF09990028C1
:100400003EF4E8AE0322084639F03AFEFEF7E2BEBB
:10041000012B7EF47CA8584A5278032A7FF493A8D3
:100420005F490A781E2A7FF647AE023A0A7043E611
:100430000D2900F0AA850F297FF420A80D22594923
:100440008AF8002091F8233043F0030381F8233029
:10045000FCF762B9B6F90833022B7EF44DAEB6F95B
:10046000E032012B7EF448AEB6F95031002B7EF716
:1004700043AE414B5B7A032B02F09082B6F9F42233
:10048000012AC4BF023A10B2431CA6F8F432C0B22B
:100490003EF0DEF996F8F63243F0020386F8F632C3
:1004A00043F0BAFE002841F07986384BB6F90021B6
:1004B0001B78FCF73FB9099B3B4903EB430203EB75
:1004C00082023A483A4B0A4412F8011B03F8011F12
:1004D00000F8011F37499942F6D1FEF719BD2549A9
:1004E00023F004022F4B0A70DA7D0C3342F0020233
:1004F000DA72314A9A42F7D19AF80030092B04D0C7
:100500000A2250236A731E4A13802C4B40F2054284
:100510000093D8210023912037F096FDFCF701B914
:10052000B6F91030002B40F0F185042043F0FAFDBD
:100530000122164BAA7093F8503033829AF800309B
:10054000FDF72FB81E48114B0178B6F90021082994
:100550001B783CF6EFA801310170FCF7EBB80B3BC0
:10056000012B9CBF0A238AF80030FFF7FFB800BFB9
:100570005F36002074850020186C00204868010850
:1005800004690020329600208C6901089030002018
:10059000203000202B6C0020286C00200546002015
:1005A000E745002020310020044D0020533000207A
:1005B000B3460020BB460020803100202C69010892
:1005C0001A690020B6F90432092B3FF760A9BA4B2B
:1005D0001B78002B7FF45BA903200722502196F89B
:1005E0007E328AF8002043F0020386F87E32B34B55
:1005F0006A73D871B24B1980FCF784B8AF49C978D7
:10060000012901F0FC842B78002B3FF423AC013A44
:10061000D2B28AF80020032A7EF677AB042A5AD198
:1006200003238AF80030FEF77BBBA64A05911446E7
:10063000137003F0C3FD05999AF800302170FCF7A0
:10064000D3B8099807287FF4D5AB04224A719A00E1
:10065000FDF7F1BF9C4B1B78002B3CF41CA9B6F9AD
:100660003033002B7CF717A9013B9BB21AB2022A48
:10067000A6F830237CF70FA9944A12782AB195F88E
:100680002620002A14BF012202229B1AA6F830332A
:10069000FCF701B901297CF408AE0A23874A8AF8DD
:1006A000003082F80A90FEF7A2BD43F063FEFCF72B
:1006B00028BAB6F900210B2A7EF70CAD844A1278CD
:1006C000002A7EF407AD80480178002918BF134640
:1006D0000370FEF78CBD794B092A995C02EB82030B
:1006E00001EB81014FEA031303EB81033344997C4F
:1006F00041F0030199747CF40FA8B6F90833042B78
:1007000005D1B6F9F432092BC8BFA6F8F422714B13
:1007100093F8E222143342F0020283F8CE226E4AAA
:100720009A42F5D1FBF7F8BFB6F9A01104293BF7BF
:1007300067AE6A490A320A330A808B80FBF763BED0
:10074000012B7FF458A802235C488371FFF753B84C
:100750005A4B5B79012B7EF4CFACB6F9A021082A65
:1007600001F0CA835E4B197801297EF4C5AC042AD6
:100770003EF7C2AC5B480378002B42F040815A4BF5
:1007800001701B785949042A0B7002F06C8242F008
:10079000B3FA504B93F8A221143342F0020283F8CB
:1007A0008E214D4A9A42F5D1B6F94032042B0CBF46
:1007B0000020012047F07CFD4A4B1B78022B02F001
:1007C00033814B4BB6F900211B78FBF7B3BF494986
:1007D0000B8801330B80FEF725BDB6F91C33464A62
:1007E00003EB430103EB810344490B4413F8011B62
:1007F00002F8011F42499142F8D1FDF78FBA2F4A02
:10080000D05C03287EF4F1AE2A7B013342EA431325
:100810002B73FEF7EDBE3B49013B3B4ADBB212F8BE
:1008200013200B70394B03201A7043F029FD304B15
:10083000B6F900211B78FBF77DBFB6F9F031062B26
:1008400000F03E85B6F91C33002B00F33185294BAF
:100850001C88002C41F0A88243F0F0FC00283FF4F3
:1008600058A803222146204639F00AFC2B78012B98
:100870007FF453A80C238AF80030FEF751BA244BBA
:100880001B78002B3DF45FAE012B01F01F82022B81
:1008900001F01882032B7BF4FEAF1E4BB3F900303E
:1008A000022B01F0A783002B41F09B834FF6FD73D1
:1008B000184A1380FBF7EFBFE0780020186C002087
:1008C00004690020FE360020948D0020E06800209E
:1008D000266C00208C310020DC31002020300020EC
:1008E0002B6C0020296C0020286C0020BC6C0020A0
:1008F00090300020C84D0020B3460020044D002059
:10090000BB4600203E6C0020A83500205F3600204A
:100910001046002030300020B6F9A031082B7EF4BC
:1009200053A8CB4BB6F900211978CA4B1B78002984
:1009300041F04A85C849C94C08782188002801F04F
:100940003B85B1F5487F82F01280232942F2218055
:1009500014392180FBF7EEBE03EB830206EB021293
:1009600092F82610BE4CE05441F0020382F8263083
:10097000FDF7A6BF002043F0D5FB9AF80030FDF745
:10098000C9BD0123B649CB70B24B1B78FBF7D2BE71
:100990000D2BD5BF01238AF800908AF80030002380
:1009A000FCF7FFBD012B7EF404A8AD4A5278032A60
:1009B0007EF419AEAB490A78A92A3FF625AF023278
:1009C0000A7021E70922A6498AF80020497A01EB3A
:1009D000810206EB820292F8E202032940F0030052
:1009E00082F8E2027FF402ABB6F9E022002A7FF43B
:1009F000FDAA9D4A9D49127811F812209C490A705F
:100A0000FFF7F4BA0132D2B2042A02717DF458AF72
:100A1000FFF7D0BA97488F4B0178B6F900211B78C1
:100A200000293BF487AE01390170FBF783BE102328
:100A30008AF80030FBF770BE40F03EFD9AF80010D7
:100A4000FCF7EDBFA1F120023F2A3EF649AE01A31B
:100A500053F822F0A90B0108E1F60008E1F60008BE
:100A6000E1F60008E1F600089D0B0108910B010872
:100A7000E1F60008850B0108790B0108E1F6000892
:100A8000E1F60008E1F600086D0B0108E1F6000848
:100A9000E1F60008610B0108E1F60008E1F6000844
:100AA000E1F60008E1F60008E1F60008E1F60008CA
:100AB000E1F60008E1F60008E1F60008E1F60008BA
:100AC000E1F60008E1F60008E1F60008E1F60008AA
:100AD000A90B0108E1F60008E1F60008E1F60008BC
:100AE000E1F60008E1F60008E1F60008E1F600088A
:100AF000E1F60008E1F60008E1F60008E1F600087A
:100B0000E1F60008E1F60008E1F60008E1F6000869
:100B1000E1F60008E1F60008E1F60008E1F6000859
:100B2000E1F60008E1F60008E1F60008E1F6000849
:100B3000E1F60008E1F60008E1F60008E1F6000839
:100B4000E1F60008E1F60008E1F60008E1F6000829
:100B5000550B01083923464A19461370FEF7C0BDEC
:100B60002023434A19461370FEF7BABD5F23404A5B
:100B700019461370FEF7B4BD2D233D4A1946137074
:100B8000FEF7AEBD29233A4A19461370FEF7A8BDF9
:100B90002823374A19461370FEF7A2BD2623344A8C
:100BA00019461370FEF79CBD4123314A1946137054
:100BB000FEF796BD304A138801331380FCF770BFEF
:100BC0000A2A7FF428AD264B9B7A022B7FF450A98A
:100BD000234B83F80A90FFF74BB9B6F95031002B3D
:100BE00000F044851B4BB6F900211B78FBF7A2BD32
:100BF00092B2531F012B4FF006033DF6E7ADFDF710
:100C0000EDBDCDE90633FFF7ECBB03EB830206EB4A
:100C10000212B2F92410002901DD01399184092B57
:100C20007DF4F6ACB6F9E022B6F9083322B95A1FC2
:100C300092B2012A41F2B181042B00F07D86084B6B
:100C40005B7A022B7DF4E4AC02F094FFFDF7E0BC8C
:100C5000396C002090300020366C00206036002077
:100C6000186C0020E74500203E6C0020A8350020CD
:100C70005F36002005460020C84D0020C74AD279C3
:100C8000022A00F0E987032A01F00F81B6F9F0216A
:100C9000042A01F0C280062B7DF48CACBF4B9979FD
:100CA000012901F0548101EB810206EB8202B2F9C5
:100CB000F0318E46002B41F33F81013B9BB218B2CD
:100CC0000329A2F8F00105D1412290FBF2F01B1A92
:100CD000A6F82C32B14B9B79012B00F09682B04BD9
:100CE0001B78012B40F2B0829AF80030052B40F0BF
:100CF000AD82AA4B5B79032B40F05684A94B1B783D
:100D0000002B00F01481A84B1B78002B3BF4C3ADE3
:100D100047F05CF89AF80030FBF7BABDA34B1B789C
:100D2000002B00F0F985A24A1378012B40F0A08532
:100D300082F80090FEF70EBA9E4B1B88022B01F042
:100D40005580142B01F04D80C82B01F0448040F2F7
:100D5000F13293423FF626A8964A5B001380FFF7D4
:100D600021B895490A782D2A7FF6A6A9FFF75DBB21
:100D70009249092B0A7004D0022250236A73904AC8
:100D80001380904B40F205420093D8210023892024
:100D900037F05AF98C4BB6F900211B78FBF7CABC27
:100DA000022A00F09C86884B83F80090FDF7A2BCD5
:100DB0008649874A0B781070002B40F0B4840123D9
:100DC0000B70814BB6F900211B78FBF7B3BC0132E5
:100DD000D2B2092A8AF8002000F005840846FEF7FE
:100DE00035B8042A3EF407AD03236C488371FEF73F
:100DF00002BD754BB6F900211B78FBF79BBC032B9A
:100E00007EF487A9734B98F800101B787148012B6A
:100E10008FBF00230133DCB223B2A6F814316A4B32
:100E2000092904701B783BF495AC98F800100A2946
:100E30007BF488ACFBF78EBC634BB6F900211B78C2
:100E4000FBF778BC644B1B78002B3DF4C8AD012B3D
:100E500001F0F681022B00F03587032B7BF41BADEC
:100E60005E4AB2F90030D91C01F0C480002B01F0B9
:100E70007385BF2B3BF70FAD584A01331380FBF747
:100E80000ABD5B7A032B00F09985444B29785B7A85
:100E900003EB830306EB830393F8E22242F00202A2
:100EA00083F8E22200297DF487A9474BB6F9002197
:100EB0001B78FBF73FBC995C02EB820301EB8101DD
:100EC0001B0103EB81033344987C297840F0020036
:100ED0009874002940F056810B3A0A2A98BF8AF884
:100EE00000103948037B002B40F03C840322502340
:100EF00001216A73324A01731380B6F90021037825
:100F0000FBF718BC254A5279022A7FF4BFAE344B56
:100F10001A78002A41F0B284B6F9C831B3F5967F49
:100F2000C6BFA3F59673A6F8C831A6F8C8219AF8EB
:100F30000030052B7FF473AEB6F9A021032A3DF7EC
:100F400069ABB6F9B421102A7DF764AB1022A6F87C
:100F5000B421FDF75FBB1879023801283EF6ECADED
:100F6000052A7EF4E9AD08225A71FEF7E5BD43F08B
:100F7000D9F89AF80030FDF71FBD0E2B7EF4F6ABC2
:100F80000F238AF80030FEF7F1BB1023154A8AF8C8
:100F9000003082F80B90FBF7BFBB00BF186C00203D
:100FA000F2780020296C00204096002001370020B4
:100FB000F6780020B68D0020E6450020329600200D
:100FC000046900209069010890300020356C0020F1
:100FD000336C00200D4600201046002030300020E9
:100FE0002A6C00202031002003468446C94911F8AC
:100FF000010FC94A02F813000133082BF7D16246EA
:10100000FEF708B9052043F08DF8B6F86030C34A02
:10101000A6F8609082F851309AF80030FCF7C1BA17
:1010200003287DF40CACBE4A82F80590D25CFDF733
:1010300006BC042A1DD10522B9498AF80020497945
:10104000B6F9002101EB810106EB810191F8A201C3
:1010500040F0030081F8A201FBF76CBB0028E8D147
:10106000082A7DF403AFAE49097A022901D1AC49BF
:101070000872AB4902EB8200895C000101EB81043C
:1010800000EB84003044847C092A44F00304847417
:101090007DF402AFFEF7A7BFA24A1278012A7DF4C1
:1010A00061AAA14B1B78052B7BF6F5AB0F2B08BF74
:1010B00009239D4A18BF03F1FF331370FBF7EBBB05
:1010C0004FF0000C9CB2631E9BB2984903EB4302A5
:1010D00003EB82020A4461468E48A6F81C3309924B
:1010E000099A10F801EF12F801CBE6450992CAB24D
:1010F00001F1010140F0E1850829F1D1002B3CF418
:1011000003AEA31EA6F81C33FCF703BE052043F074
:1011100009F8338A814A348282F850309AF80030D4
:10112000FCF73FBA824895F82D1000EB820211714E
:101130009A00FDF780BA7A49C95C01297DF4ECAFC9
:101140007C4B1B78002B3DF4E7AF022B01F2C680ED
:10115000784901330B70714B1B78FBF7EBBA002118
:101160002246084638F08CFFFEF7D8B80223724AB0
:101170001380FEF717BE032269498AF80020CB705E
:10118000FEF735B80C2A7DF617A8012900F0EE8786
:10119000022900F0DF8795F83530092B8AF80030F6
:1011A00000F0C0875D4BB6F900211B78FBF7C2BA8F
:1011B0000F215F488AF8001080F80B90FBF7BABA4D
:1011C000574B9B79022B7DF43AAC4BF0E3F896F841
:1011D0002E222B8B42F00202962B86F82E2201F251
:1011E0009183564A1278002A01F078831D2B41F230
:1011F0004C8304332B83494BB6F900211B78FBF752
:1012000099BA02DD013BA6F804324D4B1B783BB185
:10121000B6F94032042B0CBF0020012047F048F8FB
:1012200047F00CF8002801F0DA809AF80030454ABF
:101230001278012A3FF65AAD062B40F0AD81384BAB
:101240009B79012B01F04C849AF80030062B7FF437
:10125000E6AC334B9B79002B7DF4DAA9B6F9F0317B
:10126000002B40F0D182374B288B1B78002B00F0ED
:10127000C58285F8270096F852219AF8003042F08E
:101280000202A6F8509186F8522152E62023224904
:10129000B6F900210B708B700B718B710B728B7216
:1012A0000B738B7328490B701C4B1B78FBF742BAEE
:1012B0001A4BA6F81C93B6F900211B78FBF73ABA33
:1012C000B6F9E032012B7FF4BDAA204A1370FFF774
:1012D000B9BA134BDB79022B01F0B481032B7DF4F7
:1012E000AEAB184B1B78022B01F06C821C24FDF76F
:1012F0004BBC174B1A789AF80030002A3DF402A92B
:10130000012A01F03B80022A7BF4C2AA114A117023
:10131000FBF7BEBAB3460020A8350020903000206D
:10132000186C0020114600204A300020044D002097
:101330002031002010460020B68D0020E0680020FB
:10134000296C0020F27800205F3600204630002013
:10135000316C002004840020012B20D1CA4B1B7863
:10136000012B1CD0C94B1B78012B18D1002001F098
:1013700043FD9AF8001007297DF4CAABC44BDA7913
:101380006AB9B6F94012042901F0E281002901F09E
:10139000A78196F8063243F0020386F80632BD4B69
:1013A0009AF800101B78012B40F2F78306293DF4D0
:1013B000B7ABFDF7CFBB052042F0B4FE9AF80010A2
:1013C000012940F0C084B24B5B783BB9B6F960307C
:1013D000002B01F01C81042B00F0B0840424AC4BE2
:1013E00004EB010E5B5C4FEA0E1E9A000A921A444F
:1013F0000EEB820EB644BEF910C0BEF908201846A6
:10140000624509917DF765AB0CF10102AEF8102041
:10141000022B7DF475AB2B7B013143EA41132B7317
:1014200047F07CFC9AF80010FDF767BB50201422AF
:1014300000FB01F002FB030201290EF1010032441E
:101440001082E5D9052996D1914B5B79032B83D185
:101450008D4B1B78002B7FF456ACA0E70A2B3EF493
:1014600098ABFEF791BBB6F91020002A7EF494AB3E
:1014700002287EF696AB4FF0000E9AF80010844AD0
:101480008548525C01EB8104240102EB820204EBEB
:10149000820204447046324492F812C04CF0020CAE
:1014A00082F812C0B6F94022814200F1010000F03A
:1014B00011810428F8D10723754A8AF8003082F890
:1014C0000790022386F8423286F8563286F86A324E
:1014D000724BB6F900211B78FBF72CB909228AF868
:1014E0000020C6E50A228AF80020FDF7C2BC47F2B8
:1014F000D622B6F9C8319342CCBF47F22F5303F539
:101500009673A6F8C831B6F9A031032B00F34183D6
:10151000B6F9B431112B40F33C8311230521A6F811
:10152000B4311424FDF730BB052042F0FBFD9AF8DE
:101530000030012B7FF4AAAB554A52783AB9B6F97C
:101540006020002A00F01C85012A01F07781504AB2
:101550000993D05C9A00810002EB030C0A914FEAD8
:101560000C1C01440CEB810CB444BCF910108646F1
:10157000002940F3F3824A1EACF81020022800F044
:10158000D68620B9B6F9F021062A00F0FB85414A3B
:101590001278012A3FF6AAAB052B7FF440AB3C4BF7
:1015A0005B79032B3FF4AAAB012B7FF4C0AC364B25
:1015B0001B78012B3FF4BBAC344B187801287FF427
:1015C000B6AC01F019FC9AF80030062B7FF4B1ACF0
:1015D0003FE62B78002B40F02B83304BB6F90021EF
:1015E0001B78FBF7A7B80A228AF80020FDF748BC51
:1015F000274A9279022A7FF449AB4AF0CBFE96F84B
:101600002E32298B43F00203962986F82E324FF0B2
:10161000140C4FF050039AF8000040F29D87204AC6
:10162000117803FB00F21A4B1B5C0CFB0323F2182E
:10163000138A002901F04A811A490978002901F02A
:101640004981063B1382502314209AF8001003FBB3
:1016500001F20F4B5B5C00FB03233344188A47F015
:10166000BFFC9AF800302883FFF740BBB6F9F03191
:10167000022B00F0E582042B00F0E282074BB6F962
:1016800000211B78FBF756B8296C00202A6C00203B
:10169000186C0020F27800209C310020903000204F
:1016A000E068002016690020B3483CF08DFFB6F9D1
:1016B0001C230346002800F01A83431E9A42C0F2FE
:1016C0000E830E2B00F0A684AC4BB6F900211B78DC
:1016D000FBF730B8B4F900C0BCF1000F3FF4E9AE3D
:1016E0008A423FF4E6AEE8882C89A88068890329FD
:1016F000A6F84012EC8028816A8101F0E582012081
:1017000046F0D6FDDDE600208AF8009001F014FED8
:101710009AF80030FBF745BF99490A78D62A3FF678
:1017200073A8FFF74CB9974BB6F900211870934B8B
:101730001B78FAF7FFBF82F80490FDF7C1B8924B0F
:101740001B78012B7DF45AA9904B1B78122B3BF68A
:10175000A2A8092B08BF0F238C4A18BF01331370AE
:10176000FBF799B80422502384496A73884A81F8A8
:101770000C901380B6F900210B78FAF7DBBF01F06B
:10178000BBFC44F0D3F8FDF76FBD8249C97801294D
:1017900001F06980794B29781B7800293DF44FAB23
:1017A000FEF7D4BB04237C49A6F840320A7046F009
:1017B0007FFD724BB6F900211B78FAF7BBBF0428F6
:1017C00000F06186EB882A89AB806B89EA802B81E7
:1017D0006881032CA6F8404200F0438602230120D2
:1017E00086F8423286F8563286F86A3246F060FD54
:1017F000624BB6F900211B78FAF79CBF47F03AFC20
:10180000664AB6F9F0311080062B7FF434AD644B94
:101810001B78002B01F0208095F827302B832AE5D8
:101820008C00631806EB0313B3F92420B3F91C00F2
:1018300090427DF7A9A901329A84FDF7A5B905293F
:101840007DF4FDA8534B5C79022C00F0508504EB2D
:10185000840306EB8303B3F99801B3F9A03102388E
:1018600098422246099440F33F851424FDF7F9B8C5
:10187000B6F95031002B02DD01234A4A13704A4861
:1018800096F8EC1080F80090484896F83C21484BB8
:1018900080F8009085F8269046489970DA700433F5
:1018A0009842F9D12B7B43F060032B7342F0B4FCD8
:1018B000002840F07C8647F08BFBB6F94032042BC1
:1018C0000CBF0020012046F0F3FCB6F9F03143B123
:1018D000324A2B8B108885F82730962800F29286A2
:1018E00028839AF80030072B06D12A4AD279032A96
:1018F00004BF284A82F80790264AD25C03EB830390
:1019000002EB82021B0103EB820333449A7C42F018
:1019100002029A74FDF71EBC0123234A1370234A66
:10192000137047F055FB46F089FC00283DF412ACDB
:1019300046F016FCFDF70EBCB6F9F432092B7FF722
:101940007EA90923A6F8F432FFF779B9012042F005
:1019500081FC00283CF43AAC00210322084638F010
:101960008FFBB6F9F031062B7CF430AC0123124A20
:101970001370FCF72BBC00BF6030002090300020BB
:10198000E6450020356C0020114600204A3000203A
:1019900004690020186C0020BA6C0020A86C00209C
:1019A000F2780020343D002001370020F678002036
:1019B000AC720020E078002046300020B6F9E0321A
:1019C000012B7FF462AA0D21B6F91C33CE480CAA74
:1019D00001FB0303013B13F8011F02F8011B0DF18A
:1019E0003D019142F7D13F210CAB03F108001A7879
:1019F000272AA2F1210405D0402A03D0032C01D9C3
:101A00007C2A00D9197001339842F0D10023BF4AD3
:101A1000194600925C2040F2054236F015FB002387
:101A20000CAA19460092D42040F2054236F00CFB75
:101A30000D21B6F91C33B44C0DF12F0201FB034309
:101A40000DF1370013F8011B02F8011F9042F9D184
:101A5000AF498DF83B900B784A788DF838308B7809
:101A600088F800908DF839208DF83A3098F80030D9
:101A7000002BFBD098F80030042B01F00F81C82018
:101A80003CF04CFDC8203EF041FF36F02FFD96F8AB
:101A90000A3396F8E21296F8F62243F0020386F82B
:101AA0000A339C4B42F0020241F0020186F8F62212
:101AB00086F8E212B6F900211B78FAF73BBE0D203A
:101AC000954C8AF80000E17A41F00301E172FAF7DF
